{
  "contractName": "EthTw33t",
  "abi": [
    {
      "inputs": [],
      "payable": false,
      "stateMutability": "nonpayable",
      "type": "constructor"
    },
    {
      "anonymous": false,
      "inputs": [
        {
          "indexed": true,
          "internalType": "uint256",
          "name": "tweetId",
          "type": "uint256"
        },
        {
          "indexed": true,
          "internalType": "uint256",
          "name": "commentId",
          "type": "uint256"
        }
      ],
      "name": "NewComment",
      "type": "event"
    },
    {
      "anonymous": false,
      "inputs": [
        {
          "indexed": true,
          "internalType": "uint256",
          "name": "id",
          "type": "uint256"
        }
      ],
      "name": "NewTweet",
      "type": "event"
    },
    {
      "constant": true,
      "inputs": [
        {
          "internalType": "address",
          "name": "",
          "type": "address"
        }
      ],
      "name": "addressUserName",
      "outputs": [
        {
          "internalType": "string",
          "name": "",
          "type": "string"
        }
      ],
      "payable": false,
      "stateMutability": "view",
      "type": "function"
    },
    {
      "constant": true,
      "inputs": [
        {
          "internalType": "uint256",
          "name": "",
          "type": "uint256"
        }
      ],
      "name": "comments",
      "outputs": [
        {
          "internalType": "address",
          "name": "author",
          "type": "address"
        },
        {
          "internalType": "string",
          "name": "comment",
          "type": "string"
        },
        {
          "internalType": "uint256",
          "name": "commentId",
          "type": "uint256"
        }
      ],
      "payable": false,
      "stateMutability": "view",
      "type": "function"
    },
    {
      "constant": true,
      "inputs": [],
      "name": "nComments",
      "outputs": [
        {
          "internalType": "uint256",
          "name": "",
          "type": "uint256"
        }
      ],
      "payable": false,
      "stateMutability": "view",
      "type": "function"
    },
    {
      "constant": true,
      "inputs": [],
      "name": "nTweets",
      "outputs": [
        {
          "internalType": "uint256",
          "name": "",
          "type": "uint256"
        }
      ],
      "payable": false,
      "stateMutability": "view",
      "type": "function"
    },
    {
      "constant": true,
      "inputs": [
        {
          "internalType": "address",
          "name": "",
          "type": "address"
        }
      ],
      "name": "registered",
      "outputs": [
        {
          "internalType": "bool",
          "name": "",
          "type": "bool"
        }
      ],
      "payable": false,
      "stateMutability": "view",
      "type": "function"
    },
    {
      "constant": true,
      "inputs": [
        {
          "internalType": "uint256",
          "name": "",
          "type": "uint256"
        }
      ],
      "name": "tweets",
      "outputs": [
        {
          "internalType": "address",
          "name": "author",
          "type": "address"
        },
        {
          "internalType": "string",
          "name": "message",
          "type": "string"
        },
        {
          "internalType": "uint256",
          "name": "tweetId",
          "type": "uint256"
        },
        {
          "internalType": "bool",
          "name": "retweeted",
          "type": "bool"
        },
        {
          "internalType": "uint256",
          "name": "retweetId",
          "type": "uint256"
        }
      ],
      "payable": false,
      "stateMutability": "view",
      "type": "function"
    },
    {
      "constant": true,
      "inputs": [],
      "name": "isRegUser",
      "outputs": [
        {
          "internalType": "bool",
          "name": "",
          "type": "bool"
        }
      ],
      "payable": false,
      "stateMutability": "view",
      "type": "function"
    },
    {
      "constant": true,
      "inputs": [
        {
          "internalType": "uint256",
          "name": "tweetId",
          "type": "uint256"
        }
      ],
      "name": "tweetCommentLength",
      "outputs": [
        {
          "internalType": "uint256",
          "name": "",
          "type": "uint256"
        }
      ],
      "payable": false,
      "stateMutability": "view",
      "type": "function"
    },
    {
      "constant": true,
      "inputs": [
        {
          "internalType": "uint256",
          "name": "tweetId",
          "type": "uint256"
        },
        {
          "internalType": "uint256",
          "name": "index",
          "type": "uint256"
        }
      ],
      "name": "getTweetCommentId",
      "outputs": [
        {
          "internalType": "uint256",
          "name": "",
          "type": "uint256"
        }
      ],
      "payable": false,
      "stateMutability": "view",
      "type": "function"
    },
    {
      "constant": false,
      "inputs": [
        {
          "internalType": "string",
          "name": "userName",
          "type": "string"
        }
      ],
      "name": "register",
      "outputs": [],
      "payable": false,
      "stateMutability": "nonpayable",
      "type": "function"
    },
    {
      "constant": false,
      "inputs": [
        {
          "internalType": "string",
          "name": "_message",
          "type": "string"
        },
        {
          "internalType": "uint256",
          "name": "retweetId",
          "type": "uint256"
        }
      ],
      "name": "retweet",
      "outputs": [],
      "payable": false,
      "stateMutability": "nonpayable",
      "type": "function"
    },
    {
      "constant": false,
      "inputs": [
        {
          "internalType": "string",
          "name": "_message",
          "type": "string"
        }
      ],
      "name": "tweet",
      "outputs": [],
      "payable": false,
      "stateMutability": "nonpayable",
      "type": "function"
    },
    {
      "constant": false,
      "inputs": [
        {
          "internalType": "uint256",
          "name": "tweetId",
          "type": "uint256"
        },
        {
          "internalType": "string",
          "name": "_comment",
          "type": "string"
        }
      ],
      "name": "comment",
      "outputs": [],
      "payable": false,
      "stateMutability": "nonpayable",
      "type": "function"
    }
  ],
  "bytecode": "0x608060405234801561001057600080fd5b50604080516000815260208101918290525190206007556111ce806100366000396000f3fe608060405234801561001057600080fd5b50600436106100cf5760003560e01c8063a4e56be61161008c578063e8d857b011610066578063e8d857b014610409578063e9a791ad146104c5578063f2c298be146104cd578063fb46d4c514610571576100cf565b8063a4e56be614610321578063a629f53e146103c7578063b2dd5c07146103cf576100cf565b80631805c523146100d45780631b01fb6214610181578063298097631461019b5780634659527a146101be5780637e9cd7b6146102595780638ebb4c1514610276575b600080fd5b61017f600480360360408110156100ea57600080fd5b81359190810190604081016020820135600160201b81111561010b57600080fd5b82018360208201111561011d57600080fd5b803590602001918460018302840111600160201b8311171561013e57600080fd5b91908080601f016020809104026020016040519081016040528093929190818152602001838380828437600092019190915250929550610615945050505050565b005b6101896107d2565b60408051918252519081900360200190f35b610189600480360360408110156101b157600080fd5b50803590602001356107d8565b6101e4600480360360208110156101d457600080fd5b50356001600160a01b031661085b565b6040805160208082528351818301528351919283929083019185019080838360005b8381101561021e578181015183820152602001610206565b50505050905090810190601f16801561024b5780820380516001836020036101000a031916815260200191505b509250505060405180910390f35b6101896004803603602081101561026f57600080fd5b50356108f6565b6102936004803603602081101561028c57600080fd5b503561095f565b604080516001600160a01b0385168152908101829052606060208083018281528551928401929092528451608084019186019080838360005b838110156102e45781810151838201526020016102cc565b50505050905090810190601f1680156103115780820380516001836020036101000a031916815260200191505b5094505050505060405180910390f35b61017f6004803603604081101561033757600080fd5b810190602081018135600160201b81111561035157600080fd5b82018360208201111561036357600080fd5b803590602001918460018302840111600160201b8311171561038457600080fd5b91908080601f0160208091040260200160405190810160405280939291908181526020018383808284376000920191909152509295505091359250610a16915050565b610189610b1f565b6103f5600480360360208110156103e557600080fd5b50356001600160a01b0316610b25565b604080519115158252519081900360200190f35b6104266004803603602081101561041f57600080fd5b5035610b3a565b604080516001600160a01b038716815290810184905282151560608201526080810182905260a06020808301828152875192840192909252865160c084019188019080838360005b8381101561048657818101518382015260200161046e565b50505050905090810190601f1680156104b35780820380516001836020036101000a031916815260200191505b50965050505050505060405180910390f35b6103f5610c03565b61017f600480360360208110156104e357600080fd5b810190602081018135600160201b8111156104fd57600080fd5b82018360208201111561050f57600080fd5b803590602001918460018302840111600160201b8311171561053057600080fd5b91908080601f016020809104026020016040519081016040528093929190818152602001838380828437600092019190915250929550610c1a945050505050565b61017f6004803603602081101561058757600080fd5b810190602081018135600160201b8111156105a157600080fd5b8201836020820111156105b357600080fd5b803590602001918460018302840111600160201b831117156105d457600080fd5b91908080601f016020809104026020016040519081016040528093929190818152602001838380828437600092019190915250929550610e33945050505050565b61061d610c03565b610667576040805162461bcd60e51b81526020600482015260166024820152751d5cd95c881a5cc81b9bdd081c9959da5cdd195c995960521b604482015290519081900360640190fd5b8161067181610eea565b6106b7576040805162461bcd60e51b81526020600482015260126024820152711d1dd9595d081259081b9bdd08199bdd5b9960721b604482015290519081900360640190fd5b816106c181610ef1565b61070c576040805162461bcd60e51b81526020600482015260176024820152761a5b9d985b1a59081cdd1c9a5b99c8185c99dd5b595b9d604a1b604482015290519081900360640190fd5b61071461105c565b338152602080820185815260038054604080860182905260008a815280865281812060050180546001808201835591835287832001939093559254835260028552909120845181546001600160a01b0319166001600160a01b03909116178155915180518594610788938501920190611086565b50604091820151600290910155600354905186907fe51f1c394eb753f0227e519bee9758f78a87a196506d11804d4856ed0e7905d990600090a35050600380546001019055505050565b60035481565b6000826107e481610eea565b61082a576040805162461bcd60e51b81526020600482015260126024820152711d1dd9595d081259081b9bdd08199bdd5b9960721b604482015290519081900360640190fd5b600084815260208190526040902060050180548490811061084757fe5b906000526020600020015491505092915050565b60056020908152600091825260409182902080548351601f6002600019610100600186161502019093169290920491820184900484028101840190945280845290918301828280156108ee5780601f106108c3576101008083540402835291602001916108ee565b820191906000526020600020905b8154815290600101906020018083116108d157829003601f168201915b505050505081565b60008161090281610eea565b610948576040805162461bcd60e51b81526020600482015260126024820152711d1dd9595d081259081b9bdd08199bdd5b9960721b604482015290519081900360640190fd5b505060009081526020819052604090206005015490565b6002602081815260009283526040928390208054600180830180548751601f600019948316156101000294909401909116969096049182018590048502860185019096528085526001600160a01b0390911694919392830182828015610a065780601f106109db57610100808354040283529160200191610a06565b820191906000526020600020905b8154815290600101906020018083116109e957829003601f168201915b5050505050908060020154905083565b610a1e610c03565b610a68576040805162461bcd60e51b81526020600482015260166024820152751d5cd95c881a5cc81b9bdd081c9959da5cdd195c995960521b604482015290519081900360640190fd5b81610a7281610ef1565b610abd576040805162461bcd60e51b81526020600482015260176024820152761a5b9d985b1a59081cdd1c9a5b99c8185c99dd5b595b9d604a1b604482015290519081900360640190fd5b81610ac781610eea565b610b0d576040805162461bcd60e51b81526020600482015260126024820152711d1dd9595d081259081b9bdd08199bdd5b9960721b604482015290519081900360640190fd5b610b1984600185610f6d565b50505050565b60015481565b60046020526000908152604090205460ff1681565b600060208181529181526040908190208054600180830180548551600261010094831615949094026000190190911692909204601f81018790048702830187019095528482526001600160a01b039092169492939092830182828015610be15780601f10610bb657610100808354040283529160200191610be1565b820191906000526020600020905b815481529060010190602001808311610bc457829003601f168201915b50505050600283015460038401546004909401549293909260ff909116915085565b3360009081526004602052604090205460ff165b90565b80610c2481610ef1565b610c6f576040805162461bcd60e51b81526020600482015260176024820152761a5b9d985b1a59081cdd1c9a5b99c8185c99dd5b595b9d604a1b604482015290519081900360640190fd5b3360009081526004602052604090205460ff1615610cd4576040805162461bcd60e51b815260206004820152601b60248201527f757365722068617320616c726561647920726567697374657265640000000000604482015290519081900360640190fd5b6006826040518082805190602001908083835b60208310610d065780518252601f199092019160209182019101610ce7565b51815160209384036101000a600019018019909216911617905292019485525060405193849003019092205460ff16159150610d8b9050576040805162461bcd60e51b815260206004820152601760248201527f757365724e616d6520686173206265656e2074616b656e000000000000000000604482015290519081900360640190fd5b336000908152600460209081526040808320805460ff19166001179055600582529091208351610dbd92850190611086565b5060016006836040518082805190602001908083835b60208310610df25780518252601f199092019160209182019101610dd3565b51815160209384036101000a60001901801990921691161790529201948552506040519384900301909220805460ff19169315159390931790925550505050565b610e3b610c03565b610e85576040805162461bcd60e51b81526020600482015260166024820152751d5cd95c881a5cc81b9bdd081c9959da5cdd195c995960521b604482015290519081900360640190fd5b80610e8f81610ef1565b610eda576040805162461bcd60e51b81526020600482015260176024820152761a5b9d985b1a59081cdd1c9a5b99c8185c99dd5b595b9d604a1b604482015290519081900360640190fd5b610ee682600080610f6d565b5050565b6001541190565b6000600754826040516020018082805190602001908083835b60208310610f295780518252601f199092019160209182019101610f0a565b6001836020036101000a0380198251168184511680821785525050505050509050019150506040516020818303038152906040528051906020012014159050919050565b610f75611104565b338152602080820185815260018054604080860182905287151560608701526080860187905260009182528185529020845181546001600160a01b0319166001600160a01b03909116178155915180518594610fd5938501920190611086565b5060408201516002820155606082015160038201805460ff19169115159190911790556080820151600482015560a0820151805161101d916005840191602090910190611145565b50506001546040519091507f63f98618fdb05cc256b39a96bc1387da845aaa913878ac10cc93239bdc4a37b690600090a2505060018054810190555050565b604051806060016040528060006001600160a01b0316815260200160608152602001600081525090565b828054600181600116156101000203166002900490600052602060002090601f016020900481019282601f106110c757805160ff19168380011785556110f4565b828001600101855582156110f4579182015b828111156110f45782518255916020019190600101906110d9565b5061110092915061117f565b5090565b6040518060c0016040528060006001600160a01b03168152602001606081526020016000815260200160001515815260200160008152602001606081525090565b8280548282559060005260206000209081019282156110f457916020028201828111156110f45782518255916020019190600101906110d9565b610c1791905b80821115611100576000815560010161118556fea265627a7a72315820bd655196f86a79bad424f898d6557c6ba97494d753795f0ff07a9a153c79d3e764736f6c634300050c0032",
  "source": "pragma solidity 0.5.12;\n\n\n\n/// @author Jordan Loh Shu Peng\ncontract EthTw33t {\n    struct Comment {\n        address author;\n        string comment;\n        uint256 commentId;\n    }\n    struct Tweet {\n        address author;\n        string message;\n        uint256 tweetId;\n        bool retweeted;\n        uint256 retweetId; //default to 0 if false\n        uint256[] comments; //holds commentIds to the global comments state\n    }\n\n    mapping(uint256 => Tweet) public tweets;\n    uint256 public nTweets;\n    mapping(uint256 => Comment) public comments;\n    uint256 public nComments;\n    mapping(address => bool) public registered;\n    mapping(address => string) public  addressUserName;\n    mapping(string => bool) private _uniqueUsers;\n    bytes32 private _emptyString;\n\n\n\n    constructor() public {\n        _emptyString = keccak256((abi.encodePacked(\"\")));\n    }\n\n    event NewTweet(uint256 indexed id);\n\n    event NewComment(uint256 indexed tweetId, uint256 indexed commentId);\n\n    // function numComments(uint256 tweetId) view public returns(uint256) {\n    //     require(tweets.length > tweetId, \"tweetId not found to get comments\");\n    //     return tweets[tweetId].comments.length;\n    // }\n    function isRegUser() public view returns (bool) {\n        return registered[msg.sender];\n    }\n\n    function tweetCommentLength(uint256 tweetId) public view \n        validTweet(tweetId) returns (uint256) {\n        return tweets[tweetId].comments.length;\n    }\n\n    function getTweetCommentId(uint256 tweetId, uint256 index) public view \n        validTweet(tweetId)\n        returns (uint256) {\n            return tweets[tweetId].comments[index];\n    }\n\n    modifier regUser() {\n        require(isRegUser(), \"user is not registered\");\n        _;\n    }\n\n     modifier validTweet(uint256 id) {\n         require(_tweetExists(id), \"tweet Id not found\");\n         _;\n     }\n\n     modifier validComment(uint256 id) {\n         require(_commentExists(id), \"comment Id not found\");\n         _;\n     }\n\n     modifier validString(string memory m) {\n         require(_notEmptyString(m), \"invalid string argument\");\n         _;\n     }\n\n    function register(string memory userName) public \n        validString(userName) {\n        require(registered[msg.sender] == false, \"user has already registered\");\n        require(_uniqueUsers[userName] == false, \"userName has been taken\");\n        registered[msg.sender] = true;\n        addressUserName[msg.sender] = userName;\n        _uniqueUsers[userName] = true;\n    }\n\n    function retweet(string memory _message, uint256 retweetId) public \n        regUser \n        validString(_message)\n        validTweet(retweetId) {\n\n        _tweet(_message, true, retweetId);\n    }\n\n    function tweet(string memory _message) public \n        regUser\n        validString(_message) {\n        _tweet(_message, false, 0);\n    }\n\n    function comment( uint256 tweetId, string memory _comment) public \n        regUser\n        validTweet(tweetId)\n        validString(_comment) {\n        Comment memory c;    \n        c.author = msg.sender;\n        c.comment = _comment;\n        c.commentId = nComments;\n        tweets[tweetId].comments.push(nComments);\n        comments[nComments] = c;\n        emit NewComment(tweetId, nComments);\n        nComments += 1;\n    }\n\n    function _tweet(\n        string memory _message,\n        bool _retweeted,\n        uint256 _retweetId\n    ) internal {\n        Tweet memory nt;    \n        nt.author = msg.sender;\n        nt.message = _message;\n        nt.tweetId = nTweets;\n        nt.retweeted = _retweeted;\n        nt.retweetId = _retweetId;\n        tweets[nTweets] = nt;\n        emit NewTweet(nTweets);\n        nTweets += 1;\n    }\n\n    function _notEmptyString(string memory payload) internal view returns (bool) {\n        return keccak256(abi.encodePacked(payload)) != _emptyString;\n    }\n\n    function _tweetExists(uint256 tweetId) internal view returns (bool) {\n        return tweetId < nTweets;\n    }\n\n    function _commentExists(uint256 commentId) internal view returns (bool) {\n        return commentId < nComments;\n    }\n\n}",
  "sourcePath": "/home/shups/Code/ethTweet/contracts/EthTw33t.sol",
  "compiler": {
    "name": "solc",
    "version": "0.5.12+commit.7709ece9.Emscripten.clang"
  },
  "schemaVersion": "3.0.18",
  "updatedAt": "2019-11-11T06:53:55.865Z",
  "networkType": "ethereum",
  "devdoc": {
    "author": "Jordan Loh Shu Peng",
    "methods": {}
  },
  "userdoc": {
    "methods": {}
  }
}